{
  "contractName": "Buyland",
  "abi": [
    {
      "anonymous": false,
      "inputs": [
        {
          "indexed": true,
          "internalType": "address",
          "name": "owner",
          "type": "address"
        },
        {
          "indexed": true,
          "internalType": "address",
          "name": "approved",
          "type": "address"
        },
        {
          "indexed": true,
          "internalType": "uint256",
          "name": "tokenId",
          "type": "uint256"
        }
      ],
      "name": "Approval",
      "type": "event"
    },
    {
      "anonymous": false,
      "inputs": [
        {
          "indexed": true,
          "internalType": "address",
          "name": "owner",
          "type": "address"
        },
        {
          "indexed": true,
          "internalType": "address",
          "name": "operator",
          "type": "address"
        },
        {
          "indexed": false,
          "internalType": "bool",
          "name": "approved",
          "type": "bool"
        }
      ],
      "name": "ApprovalForAll",
      "type": "event"
    },
    {
      "anonymous": false,
      "inputs": [
        {
          "indexed": false,
          "internalType": "address",
          "name": "indexedFrom",
          "type": "address"
        },
        {
          "indexed": false,
          "internalType": "uint256",
          "name": "landId",
          "type": "uint256"
        },
        {
          "indexed": false,
          "internalType": "address",
          "name": "owner",
          "type": "address"
        }
      ],
      "name": "LandBought",
      "type": "event"
    },
    {
      "anonymous": false,
      "inputs": [
        {
          "indexed": false,
          "internalType": "address",
          "name": "from",
          "type": "address"
        },
        {
          "indexed": false,
          "internalType": "address",
          "name": "to",
          "type": "address"
        },
        {
          "indexed": false,
          "internalType": "uint256",
          "name": "landId",
          "type": "uint256"
        }
      ],
      "name": "LandTransfer",
      "type": "event"
    },
    {
      "anonymous": false,
      "inputs": [
        {
          "indexed": false,
          "internalType": "uint256",
          "name": "landId",
          "type": "uint256"
        },
        {
          "indexed": false,
          "internalType": "uint256",
          "name": "newPrice",
          "type": "uint256"
        }
      ],
      "name": "PriceChanged",
      "type": "event"
    },
    {
      "anonymous": false,
      "inputs": [
        {
          "indexed": true,
          "internalType": "address",
          "name": "from",
          "type": "address"
        },
        {
          "indexed": true,
          "internalType": "address",
          "name": "to",
          "type": "address"
        },
        {
          "indexed": true,
          "internalType": "uint256",
          "name": "tokenId",
          "type": "uint256"
        }
      ],
      "name": "Transfer",
      "type": "event"
    },
    {
      "inputs": [
        {
          "internalType": "address",
          "name": "to",
          "type": "address"
        },
        {
          "internalType": "uint256",
          "name": "tokenId",
          "type": "uint256"
        }
      ],
      "name": "approve",
      "outputs": [],
      "stateMutability": "nonpayable",
      "type": "function"
    },
    {
      "inputs": [
        {
          "internalType": "address",
          "name": "owner",
          "type": "address"
        }
      ],
      "name": "balanceOf",
      "outputs": [
        {
          "internalType": "uint256",
          "name": "",
          "type": "uint256"
        }
      ],
      "stateMutability": "view",
      "type": "function",
      "constant": true
    },
    {
      "inputs": [
        {
          "internalType": "uint256",
          "name": "tokenId",
          "type": "uint256"
        }
      ],
      "name": "getApproved",
      "outputs": [
        {
          "internalType": "address",
          "name": "",
          "type": "address"
        }
      ],
      "stateMutability": "view",
      "type": "function",
      "constant": true
    },
    {
      "inputs": [
        {
          "internalType": "address",
          "name": "owner",
          "type": "address"
        },
        {
          "internalType": "address",
          "name": "operator",
          "type": "address"
        }
      ],
      "name": "isApprovedForAll",
      "outputs": [
        {
          "internalType": "bool",
          "name": "",
          "type": "bool"
        }
      ],
      "stateMutability": "view",
      "type": "function",
      "constant": true
    },
    {
      "inputs": [],
      "name": "name",
      "outputs": [
        {
          "internalType": "string",
          "name": "",
          "type": "string"
        }
      ],
      "stateMutability": "view",
      "type": "function",
      "constant": true
    },
    {
      "inputs": [
        {
          "internalType": "uint256",
          "name": "tokenId",
          "type": "uint256"
        }
      ],
      "name": "ownerOf",
      "outputs": [
        {
          "internalType": "address",
          "name": "",
          "type": "address"
        }
      ],
      "stateMutability": "view",
      "type": "function",
      "constant": true
    },
    {
      "inputs": [
        {
          "internalType": "uint256",
          "name": "",
          "type": "uint256"
        }
      ],
      "name": "owners",
      "outputs": [
        {
          "internalType": "address",
          "name": "",
          "type": "address"
        }
      ],
      "stateMutability": "view",
      "type": "function",
      "constant": true
    },
    {
      "inputs": [
        {
          "internalType": "address",
          "name": "from",
          "type": "address"
        },
        {
          "internalType": "address",
          "name": "to",
          "type": "address"
        },
        {
          "internalType": "uint256",
          "name": "tokenId",
          "type": "uint256"
        }
      ],
      "name": "safeTransferFrom",
      "outputs": [],
      "stateMutability": "nonpayable",
      "type": "function"
    },
    {
      "inputs": [
        {
          "internalType": "address",
          "name": "from",
          "type": "address"
        },
        {
          "internalType": "address",
          "name": "to",
          "type": "address"
        },
        {
          "internalType": "uint256",
          "name": "tokenId",
          "type": "uint256"
        },
        {
          "internalType": "bytes",
          "name": "_data",
          "type": "bytes"
        }
      ],
      "name": "safeTransferFrom",
      "outputs": [],
      "stateMutability": "nonpayable",
      "type": "function"
    },
    {
      "inputs": [
        {
          "internalType": "address",
          "name": "operator",
          "type": "address"
        },
        {
          "internalType": "bool",
          "name": "approved",
          "type": "bool"
        }
      ],
      "name": "setApprovalForAll",
      "outputs": [],
      "stateMutability": "nonpayable",
      "type": "function"
    },
    {
      "inputs": [
        {
          "internalType": "bytes4",
          "name": "interfaceId",
          "type": "bytes4"
        }
      ],
      "name": "supportsInterface",
      "outputs": [
        {
          "internalType": "bool",
          "name": "",
          "type": "bool"
        }
      ],
      "stateMutability": "view",
      "type": "function",
      "constant": true
    },
    {
      "inputs": [],
      "name": "symbol",
      "outputs": [
        {
          "internalType": "string",
          "name": "",
          "type": "string"
        }
      ],
      "stateMutability": "view",
      "type": "function",
      "constant": true
    },
    {
      "inputs": [
        {
          "internalType": "uint256",
          "name": "tokenId",
          "type": "uint256"
        }
      ],
      "name": "tokenURI",
      "outputs": [
        {
          "internalType": "string",
          "name": "",
          "type": "string"
        }
      ],
      "stateMutability": "view",
      "type": "function",
      "constant": true
    },
    {
      "inputs": [
        {
          "internalType": "address",
          "name": "from",
          "type": "address"
        },
        {
          "internalType": "address",
          "name": "to",
          "type": "address"
        },
        {
          "internalType": "uint256",
          "name": "tokenId",
          "type": "uint256"
        }
      ],
      "name": "transferFrom",
      "outputs": [],
      "stateMutability": "nonpayable",
      "type": "function"
    },
    {
      "inputs": [
        {
          "internalType": "uint256",
          "name": "landId",
          "type": "uint256"
        },
        {
          "internalType": "uint256",
          "name": "price",
          "type": "uint256"
        }
      ],
      "name": "buy",
      "outputs": [
        {
          "internalType": "uint256",
          "name": "",
          "type": "uint256"
        }
      ],
      "stateMutability": "payable",
      "type": "function",
      "payable": true
    },
    {
      "inputs": [],
      "name": "getOwners",
      "outputs": [
        {
          "internalType": "address[800]",
          "name": "",
          "type": "address[800]"
        }
      ],
      "stateMutability": "view",
      "type": "function",
      "constant": true
    },
    {
      "inputs": [
        {
          "internalType": "uint256",
          "name": "landId",
          "type": "uint256"
        }
      ],
      "name": "getOwner",
      "outputs": [
        {
          "internalType": "address",
          "name": "landOwner",
          "type": "address"
        }
      ],
      "stateMutability": "view",
      "type": "function",
      "constant": true
    },
    {
      "inputs": [
        {
          "internalType": "address payable",
          "name": "from",
          "type": "address"
        },
        {
          "internalType": "address payable",
          "name": "to",
          "type": "address"
        },
        {
          "internalType": "uint256",
          "name": "landId",
          "type": "uint256"
        }
      ],
      "name": "transferLand",
      "outputs": [
        {
          "internalType": "uint256",
          "name": "",
          "type": "uint256"
        }
      ],
      "stateMutability": "nonpayable",
      "type": "function"
    },
    {
      "inputs": [
        {
          "internalType": "uint256",
          "name": "landId",
          "type": "uint256"
        },
        {
          "internalType": "uint256",
          "name": "newPrice",
          "type": "uint256"
        }
      ],
      "name": "setPrice",
      "outputs": [],
      "stateMutability": "nonpayable",
      "type": "function"
    },
    {
      "inputs": [
        {
          "internalType": "uint256",
          "name": "landId",
          "type": "uint256"
        }
      ],
      "name": "getPrice",
      "outputs": [
        {
          "internalType": "uint256",
          "name": "",
          "type": "uint256"
        }
      ],
      "stateMutability": "view",
      "type": "function",
      "constant": true
    }
  ],
  "bytecode": "0x60806040523480156200001157600080fd5b506040518060400160405280600881526020017f497a656e446f6d650000000000000000000000000000000000000000000000008152506040518060400160405280600381526020017f495a440000000000000000000000000000000000000000000000000000000000815250816000908051906020019062000096929190620000b8565b508060019080519060200190620000af929190620000b8565b505050620001cc565b828054620000c69062000197565b90600052602060002090601f016020900481019282620000ea576000855562000136565b82601f106200010557805160ff191683800117855562000136565b8280016001018555821562000136579182015b828111156200013557825182559160200191906001019062000118565b5b50905062000145919062000149565b5090565b5b80821115620001645760008160009055506001016200014a565b5090565b7f4e487b7100000000000000000000000000000000000000000000000000000000600052602260045260246000fd5b60006002820490506001821680620001b057607f821691505b602082108103620001c657620001c562000168565b5b50919050565b612f8780620001dc6000396000f3fe60806040526004361061011f5760003560e01c8063a0e67e2b116100a0578063c87b56dd11610064578063c87b56dd1461041d578063d6febde81461045a578063e75722301461048a578063e985e9c5146104c7578063f7d97577146105045761011f565b8063a0e67e2b14610326578063a22cb46514610351578063a762c3421461037a578063b88d4fde146103b7578063c41a360a146103e05761011f565b806323b872dd116100e757806323b872dd1461022f57806342842e0e146102585780636352211e1461028157806370a08231146102be57806395d89b41146102fb5761011f565b806301ffc9a714610124578063025e7c271461016157806306fdde031461019e578063081812fc146101c9578063095ea7b314610206575b600080fd5b34801561013057600080fd5b5061014b60048036038101906101469190611c7d565b61052d565b6040516101589190611cc5565b60405180910390f35b34801561016d57600080fd5b5061018860048036038101906101839190611d16565b61060f565b6040516101959190611d84565b60405180910390f35b3480156101aa57600080fd5b506101b3610646565b6040516101c09190611e38565b60405180910390f35b3480156101d557600080fd5b506101f060048036038101906101eb9190611d16565b6106d8565b6040516101fd9190611d84565b60405180910390f35b34801561021257600080fd5b5061022d60048036038101906102289190611e86565b61075d565b005b34801561023b57600080fd5b5061025660048036038101906102519190611ec6565b610874565b005b34801561026457600080fd5b5061027f600480360381019061027a9190611ec6565b6108d4565b005b34801561028d57600080fd5b506102a860048036038101906102a39190611d16565b6108f4565b6040516102b59190611d84565b60405180910390f35b3480156102ca57600080fd5b506102e560048036038101906102e09190611f19565b6109a5565b6040516102f29190611f55565b60405180910390f35b34801561030757600080fd5b50610310610a5c565b60405161031d9190611e38565b60405180910390f35b34801561033257600080fd5b5061033b610aee565b604051610348919061201c565b60405180910390f35b34801561035d57600080fd5b5061037860048036038101906103739190612064565b610b71565b005b34801561038657600080fd5b506103a1600480360381019061039c91906120e2565b610b87565b6040516103ae9190611f55565b60405180910390f35b3480156103c357600080fd5b506103de60048036038101906103d9919061226a565b610c2e565b005b3480156103ec57600080fd5b5061040760048036038101906104029190611d16565b610c90565b6040516104149190611d84565b60405180910390f35b34801561042957600080fd5b50610444600480360381019061043f9190611d16565b610cd0565b6040516104519190611e38565b60405180910390f35b610474600480360381019061046f91906122ed565b610d77565b6040516104819190611f55565b60405180910390f35b34801561049657600080fd5b506104b160048036038101906104ac9190611d16565b610ef8565b6040516104be9190611f55565b60405180910390f35b3480156104d357600080fd5b506104ee60048036038101906104e9919061232d565b610f19565b6040516104fb9190611cc5565b60405180910390f35b34801561051057600080fd5b5061052b600480360381019061052691906122ed565b610fad565b005b60007f80ac58cd000000000000000000000000000000000000000000000000000000007bffffffffffffffffffffffffffffffffffffffffffffffffffffffff1916827bffffffffffffffffffffffffffffffffffffffffffffffffffffffff191614806105f857507f5b5e139f000000000000000000000000000000000000000000000000000000007bffffffffffffffffffffffffffffffffffffffffffffffffffffffff1916827bffffffffffffffffffffffffffffffffffffffffffffffffffffffff1916145b80610608575061060782611046565b5b9050919050565b600681610320811061062057600080fd5b016000915054906101000a900473ffffffffffffffffffffffffffffffffffffffff1681565b6060600080546106559061239c565b80601f01602080910402602001604051908101604052809291908181526020018280546106819061239c565b80156106ce5780601f106106a3576101008083540402835291602001916106ce565b820191906000526020600020905b8154815290600101906020018083116106b157829003601f168201915b5050505050905090565b60006106e3826110b0565b610722576040517f08c379a00000000000000000000000000000000000000000000000000000000081526004016107199061243f565b60405180910390fd5b6004600083815260200190815260200160002060009054906101000a900473ffffffffffffffffffffffffffffffffffffffff169050919050565b6000610768826108f4565b90508073ffffffffffffffffffffffffffffffffffffffff168373ffffffffffffffffffffffffffffffffffffffff16036107d8576040517f08c379a00000000000000000000000000000000000000000000000000000000081526004016107cf906124d1565b60405180910390fd5b8073ffffffffffffffffffffffffffffffffffffffff166107f761111c565b73ffffffffffffffffffffffffffffffffffffffff16148061082657506108258161082061111c565b610f19565b5b610865576040517f08c379a000000000000000000000000000000000000000000000000000000000815260040161085c90612563565b60405180910390fd5b61086f8383611124565b505050565b61088561087f61111c565b826111dd565b6108c4576040517f08c379a00000000000000000000000000000000000000000000000000000000081526004016108bb906125f5565b60405180910390fd5b6108cf8383836112bb565b505050565b6108ef83838360405180602001604052806000815250610c2e565b505050565b6000806002600084815260200190815260200160002060009054906101000a900473ffffffffffffffffffffffffffffffffffffffff169050600073ffffffffffffffffffffffffffffffffffffffff168173ffffffffffffffffffffffffffffffffffffffff160361099c576040517f08c379a000000000000000000000000000000000000000000000000000000000815260040161099390612687565b60405180910390fd5b80915050919050565b60008073ffffffffffffffffffffffffffffffffffffffff168273ffffffffffffffffffffffffffffffffffffffff1603610a15576040517f08c379a0000000000000000000000000000000000000000000000000000000008152600401610a0c90612719565b60405180910390fd5b600360008373ffffffffffffffffffffffffffffffffffffffff1673ffffffffffffffffffffffffffffffffffffffff168152602001908152602001600020549050919050565b606060018054610a6b9061239c565b80601f0160208091040260200160405190810160405280929190818152602001828054610a979061239c565b8015610ae45780601f10610ab957610100808354040283529160200191610ae4565b820191906000526020600020905b815481529060010190602001808311610ac757829003601f168201915b5050505050905090565b610af6611bed565b60066103208060200260405190810160405280929190826103208015610b67576020028201915b8160009054906101000a900473ffffffffffffffffffffffffffffffffffffffff1673ffffffffffffffffffffffffffffffffffffffff1681526020019060010190808311610b1d575b5050505050905090565b610b83610b7c61111c565b8383611521565b5050565b6000610b948484846112bb565b826006836103208110610baa57610ba9612739565b5b0160006101000a81548173ffffffffffffffffffffffffffffffffffffffff021916908373ffffffffffffffffffffffffffffffffffffffff1602179055507f9e1d6189df6b1805ec42b2e7d6b24c959f44a916843a83c78d199e717631836b848484604051610c1c939291906127c7565b60405180910390a18190509392505050565b610c3f610c3961111c565b836111dd565b610c7e576040517f08c379a0000000000000000000000000000000000000000000000000000000008152600401610c75906125f5565b60405180910390fd5b610c8a8484848461168d565b50505050565b60006006826103208110610ca757610ca6612739565b5b0160009054906101000a900473ffffffffffffffffffffffffffffffffffffffff169050919050565b6060610cdb826110b0565b610d1a576040517f08c379a0000000000000000000000000000000000000000000000000000000008152600401610d1190612870565b60405180910390fd5b6000610d246116e9565b90506000815111610d445760405180602001604052806000815250610d6f565b80610d4e84611700565b604051602001610d5f9291906128cc565b6040516020818303038152906040525b915050919050565b6000808310158015610d8b575061031f8311155b610d9457600080fd5b600073ffffffffffffffffffffffffffffffffffffffff166006846103208110610dc157610dc0612739565b5b0160009054906101000a900473ffffffffffffffffffffffffffffffffffffffff1673ffffffffffffffffffffffffffffffffffffffff1614610e0357600080fd5b81610326846103208110610e1a57610e19612739565b5b0181905550610e293384611860565b336006846103208110610e3f57610e3e612739565b5b0160006101000a81548173ffffffffffffffffffffffffffffffffffffffff021916908373ffffffffffffffffffffffffffffffffffffffff1602179055507fed9e0dc5479152698d99195d219992bd45798ef9712b0e94058cd0a9c614ce9933846006866103208110610eb657610eb5612739565b5b0160009054906101000a900473ffffffffffffffffffffffffffffffffffffffff16604051610ee7939291906128f0565b60405180910390a182905092915050565b6000610326826103208110610f1057610f0f612739565b5b01549050919050565b6000600560008473ffffffffffffffffffffffffffffffffffffffff1673ffffffffffffffffffffffffffffffffffffffff16815260200190815260200160002060008373ffffffffffffffffffffffffffffffffffffffff1673ffffffffffffffffffffffffffffffffffffffff16815260200190815260200160002060009054906101000a900460ff16905092915050565b3373ffffffffffffffffffffffffffffffffffffffff16610fcd836108f4565b73ffffffffffffffffffffffffffffffffffffffff1614610fed57600080fd5b8061032683610320811061100457611003612739565b5b01819055507f8aa4fa52648a6d15edce8a179c792c86f3719d0cc3c572cf90f91948f0f2cb68828260405161103a929190612927565b60405180910390a15050565b60007f01ffc9a7000000000000000000000000000000000000000000000000000000007bffffffffffffffffffffffffffffffffffffffffffffffffffffffff1916827bffffffffffffffffffffffffffffffffffffffffffffffffffffffff1916149050919050565b60008073ffffffffffffffffffffffffffffffffffffffff166002600084815260200190815260200160002060009054906101000a900473ffffffffffffffffffffffffffffffffffffffff1673ffffffffffffffffffffffffffffffffffffffff1614159050919050565b600033905090565b816004600083815260200190815260200160002060006101000a81548173ffffffffffffffffffffffffffffffffffffffff021916908373ffffffffffffffffffffffffffffffffffffffff160217905550808273ffffffffffffffffffffffffffffffffffffffff16611197836108f4565b73ffffffffffffffffffffffffffffffffffffffff167f8c5be1e5ebec7d5bd14f71427d1e84f3dd0314c0f7b2291e5b200ac8c7c3b92560405160405180910390a45050565b60006111e8826110b0565b611227576040517f08c379a000000000000000000000000000000000000000000000000000000000815260040161121e906129c2565b60405180910390fd5b6000611232836108f4565b90508073ffffffffffffffffffffffffffffffffffffffff168473ffffffffffffffffffffffffffffffffffffffff16148061127457506112738185610f19565b5b806112b257508373ffffffffffffffffffffffffffffffffffffffff1661129a846106d8565b73ffffffffffffffffffffffffffffffffffffffff16145b91505092915050565b8273ffffffffffffffffffffffffffffffffffffffff166112db826108f4565b73ffffffffffffffffffffffffffffffffffffffff1614611331576040517f08c379a000000000000000000000000000000000000000000000000000000000815260040161132890612a54565b60405180910390fd5b600073ffffffffffffffffffffffffffffffffffffffff168273ffffffffffffffffffffffffffffffffffffffff16036113a0576040517f08c379a000000000000000000000000000000000000000000000000000000000815260040161139790612ae6565b60405180910390fd5b6113ab838383611a39565b6113b6600082611124565b6001600360008573ffffffffffffffffffffffffffffffffffffffff1673ffffffffffffffffffffffffffffffffffffffff16815260200190815260200160002060008282546114069190612b35565b925050819055506001600360008473ffffffffffffffffffffffffffffffffffffffff1673ffffffffffffffffffffffffffffffffffffffff168152602001908152602001600020600082825461145d9190612b69565b92505081905550816002600083815260200190815260200160002060006101000a81548173ffffffffffffffffffffffffffffffffffffffff021916908373ffffffffffffffffffffffffffffffffffffffff160217905550808273ffffffffffffffffffffffffffffffffffffffff168473ffffffffffffffffffffffffffffffffffffffff167fddf252ad1be2c89b69c2b068fc378daa952ba7f163c4a11628f55a4df523b3ef60405160405180910390a461151c838383611a3e565b505050565b8173ffffffffffffffffffffffffffffffffffffffff168373ffffffffffffffffffffffffffffffffffffffff160361158f576040517f08c379a000000000000000000000000000000000000000000000000000000000815260040161158690612c0b565b60405180910390fd5b80600560008573ffffffffffffffffffffffffffffffffffffffff1673ffffffffffffffffffffffffffffffffffffffff16815260200190815260200160002060008473ffffffffffffffffffffffffffffffffffffffff1673ffffffffffffffffffffffffffffffffffffffff16815260200190815260200160002060006101000a81548160ff0219169083151502179055508173ffffffffffffffffffffffffffffffffffffffff168373ffffffffffffffffffffffffffffffffffffffff167f17307eab39ab6107e8899845ad3d59bd9653f200f220920489ca2b5937696c31836040516116809190611cc5565b60405180910390a3505050565b6116988484846112bb565b6116a484848484611a43565b6116e3576040517f08c379a00000000000000000000000000000000000000000000000000000000081526004016116da90612c9d565b60405180910390fd5b50505050565b606060405180602001604052806000815250905090565b606060008203611747576040518060400160405280600181526020017f3000000000000000000000000000000000000000000000000000000000000000815250905061185b565b600082905060005b6000821461177957808061176290612cbd565b915050600a826117729190612d34565b915061174f565b60008167ffffffffffffffff8111156117955761179461213f565b5b6040519080825280601f01601f1916602001820160405280156117c75781602001600182028036833780820191505090505b5090505b60008514611854576001826117e09190612b35565b9150600a856117ef9190612d65565b60306117fb9190612b69565b60f81b81838151811061181157611810612739565b5b60200101907effffffffffffffffffffffffffffffffffffffffffffffffffffffffffffff1916908160001a905350600a8561184d9190612d34565b94506117cb565b8093505050505b919050565b600073ffffffffffffffffffffffffffffffffffffffff168273ffffffffffffffffffffffffffffffffffffffff16036118cf576040517f08c379a00000000000000000000000000000000000000000000000000000000081526004016118c690612de2565b60405180910390fd5b6118d8816110b0565b15611918576040517f08c379a000000000000000000000000000000000000000000000000000000000815260040161190f90612e4e565b60405180910390fd5b61192460008383611a39565b6001600360008473ffffffffffffffffffffffffffffffffffffffff1673ffffffffffffffffffffffffffffffffffffffff16815260200190815260200160002060008282546119749190612b69565b92505081905550816002600083815260200190815260200160002060006101000a81548173ffffffffffffffffffffffffffffffffffffffff021916908373ffffffffffffffffffffffffffffffffffffffff160217905550808273ffffffffffffffffffffffffffffffffffffffff16600073ffffffffffffffffffffffffffffffffffffffff167fddf252ad1be2c89b69c2b068fc378daa952ba7f163c4a11628f55a4df523b3ef60405160405180910390a4611a3560008383611a3e565b5050565b505050565b505050565b6000611a648473ffffffffffffffffffffffffffffffffffffffff16611bca565b15611bbd578373ffffffffffffffffffffffffffffffffffffffff1663150b7a02611a8d61111c565b8786866040518563ffffffff1660e01b8152600401611aaf9493929190612ec3565b6020604051808303816000875af1925050508015611aeb57506040513d601f19601f82011682018060405250810190611ae89190612f24565b60015b611b6d573d8060008114611b1b576040519150601f19603f3d011682016040523d82523d6000602084013e611b20565b606091505b506000815103611b65576040517f08c379a0000000000000000000000000000000000000000000000000000000008152600401611b5c90612c9d565b60405180910390fd5b805181602001fd5b63150b7a0260e01b7bffffffffffffffffffffffffffffffffffffffffffffffffffffffff1916817bffffffffffffffffffffffffffffffffffffffffffffffffffffffff191614915050611bc2565b600190505b949350505050565b6000808273ffffffffffffffffffffffffffffffffffffffff163b119050919050565b60405180616400016040528061032090602082028036833780820191505090505090565b6000604051905090565b600080fd5b600080fd5b60007fffffffff0000000000000000000000000000000000000000000000000000000082169050919050565b611c5a81611c25565b8114611c6557600080fd5b50565b600081359050611c7781611c51565b92915050565b600060208284031215611c9357611c92611c1b565b5b6000611ca184828501611c68565b91505092915050565b60008115159050919050565b611cbf81611caa565b82525050565b6000602082019050611cda6000830184611cb6565b92915050565b6000819050919050565b611cf381611ce0565b8114611cfe57600080fd5b50565b600081359050611d1081611cea565b92915050565b600060208284031215611d2c57611d2b611c1b565b5b6000611d3a84828501611d01565b91505092915050565b600073ffffffffffffffffffffffffffffffffffffffff82169050919050565b6000611d6e82611d43565b9050919050565b611d7e81611d63565b82525050565b6000602082019050611d996000830184611d75565b92915050565b600081519050919050565b600082825260208201905092915050565b60005b83811015611dd9578082015181840152602081019050611dbe565b83811115611de8576000848401525b50505050565b6000601f19601f8301169050919050565b6000611e0a82611d9f565b611e148185611daa565b9350611e24818560208601611dbb565b611e2d81611dee565b840191505092915050565b60006020820190508181036000830152611e528184611dff565b905092915050565b611e6381611d63565b8114611e6e57600080fd5b50565b600081359050611e8081611e5a565b92915050565b60008060408385031215611e9d57611e9c611c1b565b5b6000611eab85828601611e71565b9250506020611ebc85828601611d01565b9150509250929050565b600080600060608486031215611edf57611ede611c1b565b5b6000611eed86828701611e71565b9350506020611efe86828701611e71565b9250506040611f0f86828701611d01565b9150509250925092565b600060208284031215611f2f57611f2e611c1b565b5b6000611f3d84828501611e71565b91505092915050565b611f4f81611ce0565b82525050565b6000602082019050611f6a6000830184611f46565b92915050565b60006103209050919050565b600081905092915050565b6000819050919050565b611f9a81611d63565b82525050565b6000611fac8383611f91565b60208301905092915050565b6000602082019050919050565b611fce81611f70565b611fd88184611f7c565b9250611fe382611f87565b8060005b83811015612014578151611ffb8782611fa0565b965061200683611fb8565b925050600181019050611fe7565b505050505050565b6000616400820190506120326000830184611fc5565b92915050565b61204181611caa565b811461204c57600080fd5b50565b60008135905061205e81612038565b92915050565b6000806040838503121561207b5761207a611c1b565b5b600061208985828601611e71565b925050602061209a8582860161204f565b9150509250929050565b60006120af82611d43565b9050919050565b6120bf816120a4565b81146120ca57600080fd5b50565b6000813590506120dc816120b6565b92915050565b6000806000606084860312156120fb576120fa611c1b565b5b6000612109868287016120cd565b935050602061211a868287016120cd565b925050604061212b86828701611d01565b9150509250925092565b600080fd5b600080fd5b7f4e487b7100000000000000000000000000000000000000000000000000000000600052604160045260246000fd5b61217782611dee565b810181811067ffffffffffffffff821117156121965761219561213f565b5b80604052505050565b60006121a9611c11565b90506121b5828261216e565b919050565b600067ffffffffffffffff8211156121d5576121d461213f565b5b6121de82611dee565b9050602081019050919050565b82818337600083830152505050565b600061220d612208846121ba565b61219f565b9050828152602081018484840111156122295761222861213a565b5b6122348482856121eb565b509392505050565b600082601f83011261225157612250612135565b5b81356122618482602086016121fa565b91505092915050565b6000806000806080858703121561228457612283611c1b565b5b600061229287828801611e71565b94505060206122a387828801611e71565b93505060406122b487828801611d01565b925050606085013567ffffffffffffffff8111156122d5576122d4611c20565b5b6122e18782880161223c565b91505092959194509250565b6000806040838503121561230457612303611c1b565b5b600061231285828601611d01565b925050602061232385828601611d01565b9150509250929050565b6000806040838503121561234457612343611c1b565b5b600061235285828601611e71565b925050602061236385828601611e71565b9150509250929050565b7f4e487b7100000000000000000000000000000000000000000000000000000000600052602260045260246000fd5b600060028204905060018216806123b457607f821691505b6020821081036123c7576123c661236d565b5b50919050565b7f4552433732313a20617070726f76656420717565727920666f72206e6f6e657860008201527f697374656e7420746f6b656e0000000000000000000000000000000000000000602082015250565b6000612429602c83611daa565b9150612434826123cd565b604082019050919050565b600060208201905081810360008301526124588161241c565b9050919050565b7f4552433732313a20617070726f76616c20746f2063757272656e74206f776e6560008201527f7200000000000000000000000000000000000000000000000000000000000000602082015250565b60006124bb602183611daa565b91506124c68261245f565b604082019050919050565b600060208201905081810360008301526124ea816124ae565b9050919050565b7f4552433732313a20617070726f76652063616c6c6572206973206e6f74206f7760008201527f6e6572206e6f7220617070726f76656420666f7220616c6c0000000000000000602082015250565b600061254d603883611daa565b9150612558826124f1565b604082019050919050565b6000602082019050818103600083015261257c81612540565b9050919050565b7f4552433732313a207472616e736665722063616c6c6572206973206e6f74206f60008201527f776e6572206e6f7220617070726f766564000000000000000000000000000000602082015250565b60006125df603183611daa565b91506125ea82612583565b604082019050919050565b6000602082019050818103600083015261260e816125d2565b9050919050565b7f4552433732313a206f776e657220717565727920666f72206e6f6e657869737460008201527f656e7420746f6b656e0000000000000000000000000000000000000000000000602082015250565b6000612671602983611daa565b915061267c82612615565b604082019050919050565b600060208201905081810360008301526126a081612664565b9050919050565b7f4552433732313a2062616c616e636520717565727920666f7220746865207a6560008201527f726f206164647265737300000000000000000000000000000000000000000000602082015250565b6000612703602a83611daa565b915061270e826126a7565b604082019050919050565b60006020820190508181036000830152612732816126f6565b9050919050565b7f4e487b7100000000000000000000000000000000000000000000000000000000600052603260045260246000fd5b6000819050919050565b600061278d61278861278384611d43565b612768565b611d43565b9050919050565b600061279f82612772565b9050919050565b60006127b182612794565b9050919050565b6127c1816127a6565b82525050565b60006060820190506127dc60008301866127b8565b6127e960208301856127b8565b6127f66040830184611f46565b949350505050565b7f4552433732314d657461646174613a2055524920717565727920666f72206e6f60008201527f6e6578697374656e7420746f6b656e0000000000000000000000000000000000602082015250565b600061285a602f83611daa565b9150612865826127fe565b604082019050919050565b600060208201905081810360008301526128898161284d565b9050919050565b600081905092915050565b60006128a682611d9f565b6128b08185612890565b93506128c0818560208601611dbb565b80840191505092915050565b60006128d8828561289b565b91506128e4828461289b565b91508190509392505050565b60006060820190506129056000830186611d75565b6129126020830185611f46565b61291f6040830184611d75565b949350505050565b600060408201905061293c6000830185611f46565b6129496020830184611f46565b9392505050565b7f4552433732313a206f70657261746f7220717565727920666f72206e6f6e657860008201527f697374656e7420746f6b656e0000000000000000000000000000000000000000602082015250565b60006129ac602c83611daa565b91506129b782612950565b604082019050919050565b600060208201905081810360008301526129db8161299f565b9050919050565b7f4552433732313a207472616e736665722066726f6d20696e636f72726563742060008201527f6f776e6572000000000000000000000000000000000000000000000000000000602082015250565b6000612a3e602583611daa565b9150612a49826129e2565b604082019050919050565b60006020820190508181036000830152612a6d81612a31565b9050919050565b7f4552433732313a207472616e7366657220746f20746865207a65726f2061646460008201527f7265737300000000000000000000000000000000000000000000000000000000602082015250565b6000612ad0602483611daa565b9150612adb82612a74565b604082019050919050565b60006020820190508181036000830152612aff81612ac3565b9050919050565b7f4e487b7100000000000000000000000000000000000000000000000000000000600052601160045260246000fd5b6000612b4082611ce0565b9150612b4b83611ce0565b925082821015612b5e57612b5d612b06565b5b828203905092915050565b6000612b7482611ce0565b9150612b7f83611ce0565b9250827fffffffffffffffffffffffffffffffffffffffffffffffffffffffffffffffff03821115612bb457612bb3612b06565b5b828201905092915050565b7f4552433732313a20617070726f766520746f2063616c6c657200000000000000600082015250565b6000612bf5601983611daa565b9150612c0082612bbf565b602082019050919050565b60006020820190508181036000830152612c2481612be8565b9050919050565b7f4552433732313a207472616e7366657220746f206e6f6e20455243373231526560008201527f63656976657220696d706c656d656e7465720000000000000000000000000000602082015250565b6000612c87603283611daa565b9150612c9282612c2b565b604082019050919050565b60006020820190508181036000830152612cb681612c7a565b9050919050565b6000612cc882611ce0565b91507fffffffffffffffffffffffffffffffffffffffffffffffffffffffffffffffff8203612cfa57612cf9612b06565b5b600182019050919050565b7f4e487b7100000000000000000000000000000000000000000000000000000000600052601260045260246000fd5b6000612d3f82611ce0565b9150612d4a83611ce0565b925082612d5a57612d59612d05565b5b828204905092915050565b6000612d7082611ce0565b9150612d7b83611ce0565b925082612d8b57612d8a612d05565b5b828206905092915050565b7f4552433732313a206d696e7420746f20746865207a65726f2061646472657373600082015250565b6000612dcc602083611daa565b9150612dd782612d96565b602082019050919050565b60006020820190508181036000830152612dfb81612dbf565b9050919050565b7f4552433732313a20746f6b656e20616c7265616479206d696e74656400000000600082015250565b6000612e38601c83611daa565b9150612e4382612e02565b602082019050919050565b60006020820190508181036000830152612e6781612e2b565b9050919050565b600081519050919050565b600082825260208201905092915050565b6000612e9582612e6e565b612e9f8185612e79565b9350612eaf818560208601611dbb565b612eb881611dee565b840191505092915050565b6000608082019050612ed86000830187611d75565b612ee56020830186611d75565b612ef26040830185611f46565b8181036060830152612f048184612e8a565b905095945050505050565b600081519050612f1e81611c51565b92915050565b600060208284031215612f3a57612f39611c1b565b5b6000612f4884828501612f0f565b9150509291505056fea264697066735822122026d73a19c9ea5ba2d39e1e225f1f584017e6c30827d9f8924d48abee8999cc1b64736f6c634300080d0033",
  "immutableReferences": {},
  "source": "// contracts/Izendome.sol\r\n// SPDX-License-Identifier: MIT\r\npragma solidity ^0.8.13;\r\n\r\nimport \"@openzeppelin/contracts/token/ERC721/ERC721.sol\";\r\nimport \"./IzenDome.sol\";\r\n\r\ncontract Buyland is IzenDome {\r\n    address [800] public owners;\r\n    uint [800] _price;\r\n    \r\n    event LandBought(address indexedFrom, uint256 landId, address owner);\r\n    event LandTransfer(address from, address to, uint landId);\r\n    event PriceChanged(uint landId, uint256 newPrice);\r\n\r\n    function buy(uint256 landId, uint256 price) public payable returns (uint256) {\r\n        require(landId >= 0 && landId <= 799);\r\n        require(owners[landId] == 0x0000000000000000000000000000000000000000);\r\n        _price[landId] = price;\r\n        _mint(msg.sender, landId);\r\n        owners[landId] = msg.sender;\r\n        emit LandBought(msg.sender, landId, owners[landId]);\r\n        return landId;\r\n    }\r\n    // Retrieving the owners\r\n    function getOwners() public view returns (address[800] memory) {\r\n        return owners;\r\n    }\r\n    // Retrieving specific owner\r\n    function getOwner(uint256 landId) public view returns (address landOwner) {\r\n        return owners[landId];\r\n    }\r\n    function transferLand(address payable from, address payable to, uint256 landId ) public virtual  returns (uint256) {\r\n        //solhint-disable-next-line max-line-length\r\n        _transfer(from, to, landId);\r\n        owners[landId] = to;\r\n        emit LandTransfer(from ,to ,landId);\r\n        return landId;\r\n    }\r\n    function setPrice(uint256 landId, uint256 newPrice) public virtual {\r\n        require(ownerOf(landId) == msg.sender);\r\n        _price[landId] = newPrice;\r\n        emit PriceChanged(landId, newPrice);\r\n    }\r\n    function getPrice(uint256 landId) public view returns (uint256) {\r\n        return _price[landId];\r\n    }\r\n\r\n}",
  "sourcePath": "D:\\Blockchain\\dapp-meta-decentraland2\\contracts\\BuyLand.sol",
  "compiler": {
    "name": "solc",
    "version": "0.8.13+commit.abaa5c0e.Emscripten.clang"
  },
  "schemaVersion": "3.4.7",
  "updatedAt": "2022-07-30T13:14:53.037Z",
  "networkType": "ethereum",
  "devdoc": {
    "kind": "dev",
    "methods": {
      "approve(address,uint256)": {
        "details": "See {IERC721-approve}."
      },
      "balanceOf(address)": {
        "details": "See {IERC721-balanceOf}."
      },
      "getApproved(uint256)": {
        "details": "See {IERC721-getApproved}."
      },
      "isApprovedForAll(address,address)": {
        "details": "See {IERC721-isApprovedForAll}."
      },
      "name()": {
        "details": "See {IERC721Metadata-name}."
      },
      "ownerOf(uint256)": {
        "details": "See {IERC721-ownerOf}."
      },
      "safeTransferFrom(address,address,uint256)": {
        "details": "See {IERC721-safeTransferFrom}."
      },
      "safeTransferFrom(address,address,uint256,bytes)": {
        "details": "See {IERC721-safeTransferFrom}."
      },
      "setApprovalForAll(address,bool)": {
        "details": "See {IERC721-setApprovalForAll}."
      },
      "supportsInterface(bytes4)": {
        "details": "See {IERC165-supportsInterface}."
      },
      "symbol()": {
        "details": "See {IERC721Metadata-symbol}."
      },
      "tokenURI(uint256)": {
        "details": "See {IERC721Metadata-tokenURI}."
      },
      "transferFrom(address,address,uint256)": {
        "details": "See {IERC721-transferFrom}."
      }
    },
    "version": 1
  },
  "userdoc": {
    "kind": "user",
    "methods": {},
    "version": 1
  }
}