{
  "contractName": "Buyland",
  "abi": [
    {
      "anonymous": false,
      "inputs": [
        {
          "indexed": true,
          "internalType": "address",
          "name": "owner",
          "type": "address"
        },
        {
          "indexed": true,
          "internalType": "address",
          "name": "approved",
          "type": "address"
        },
        {
          "indexed": true,
          "internalType": "uint256",
          "name": "tokenId",
          "type": "uint256"
        }
      ],
      "name": "Approval",
      "type": "event"
    },
    {
      "anonymous": false,
      "inputs": [
        {
          "indexed": true,
          "internalType": "address",
          "name": "owner",
          "type": "address"
        },
        {
          "indexed": true,
          "internalType": "address",
          "name": "operator",
          "type": "address"
        },
        {
          "indexed": false,
          "internalType": "bool",
          "name": "approved",
          "type": "bool"
        }
      ],
      "name": "ApprovalForAll",
      "type": "event"
    },
    {
      "anonymous": false,
      "inputs": [
        {
          "indexed": false,
          "internalType": "address",
          "name": "indexedFrom",
          "type": "address"
        },
        {
          "indexed": false,
          "internalType": "uint256",
          "name": "landId",
          "type": "uint256"
        },
        {
          "indexed": false,
          "internalType": "address",
          "name": "owner",
          "type": "address"
        }
      ],
      "name": "LandBought",
      "type": "event"
    },
    {
      "anonymous": false,
      "inputs": [
        {
          "indexed": false,
          "internalType": "address",
          "name": "from",
          "type": "address"
        },
        {
          "indexed": false,
          "internalType": "address",
          "name": "to",
          "type": "address"
        },
        {
          "indexed": false,
          "internalType": "uint256",
          "name": "landId",
          "type": "uint256"
        }
      ],
      "name": "LandTransfer",
      "type": "event"
    },
    {
      "anonymous": false,
      "inputs": [
        {
          "indexed": false,
          "internalType": "uint256",
          "name": "landId",
          "type": "uint256"
        },
        {
          "indexed": false,
          "internalType": "uint256",
          "name": "newPrice",
          "type": "uint256"
        }
      ],
      "name": "PriceChanged",
      "type": "event"
    },
    {
      "anonymous": false,
      "inputs": [
        {
          "indexed": true,
          "internalType": "address",
          "name": "from",
          "type": "address"
        },
        {
          "indexed": true,
          "internalType": "address",
          "name": "to",
          "type": "address"
        },
        {
          "indexed": true,
          "internalType": "uint256",
          "name": "tokenId",
          "type": "uint256"
        }
      ],
      "name": "Transfer",
      "type": "event"
    },
    {
      "inputs": [
        {
          "internalType": "address",
          "name": "to",
          "type": "address"
        },
        {
          "internalType": "uint256",
          "name": "tokenId",
          "type": "uint256"
        }
      ],
      "name": "approve",
      "outputs": [],
      "stateMutability": "nonpayable",
      "type": "function"
    },
    {
      "inputs": [
        {
          "internalType": "address",
          "name": "owner",
          "type": "address"
        }
      ],
      "name": "balanceOf",
      "outputs": [
        {
          "internalType": "uint256",
          "name": "",
          "type": "uint256"
        }
      ],
      "stateMutability": "view",
      "type": "function",
      "constant": true
    },
    {
      "inputs": [
        {
          "internalType": "uint256",
          "name": "tokenId",
          "type": "uint256"
        }
      ],
      "name": "getApproved",
      "outputs": [
        {
          "internalType": "address",
          "name": "",
          "type": "address"
        }
      ],
      "stateMutability": "view",
      "type": "function",
      "constant": true
    },
    {
      "inputs": [
        {
          "internalType": "address",
          "name": "owner",
          "type": "address"
        },
        {
          "internalType": "address",
          "name": "operator",
          "type": "address"
        }
      ],
      "name": "isApprovedForAll",
      "outputs": [
        {
          "internalType": "bool",
          "name": "",
          "type": "bool"
        }
      ],
      "stateMutability": "view",
      "type": "function",
      "constant": true
    },
    {
      "inputs": [],
      "name": "name",
      "outputs": [
        {
          "internalType": "string",
          "name": "",
          "type": "string"
        }
      ],
      "stateMutability": "view",
      "type": "function",
      "constant": true
    },
    {
      "inputs": [
        {
          "internalType": "uint256",
          "name": "tokenId",
          "type": "uint256"
        }
      ],
      "name": "ownerOf",
      "outputs": [
        {
          "internalType": "address",
          "name": "",
          "type": "address"
        }
      ],
      "stateMutability": "view",
      "type": "function",
      "constant": true
    },
    {
      "inputs": [
        {
          "internalType": "uint256",
          "name": "",
          "type": "uint256"
        }
      ],
      "name": "owners",
      "outputs": [
        {
          "internalType": "address",
          "name": "",
          "type": "address"
        }
      ],
      "stateMutability": "view",
      "type": "function",
      "constant": true
    },
    {
      "inputs": [
        {
          "internalType": "address",
          "name": "from",
          "type": "address"
        },
        {
          "internalType": "address",
          "name": "to",
          "type": "address"
        },
        {
          "internalType": "uint256",
          "name": "tokenId",
          "type": "uint256"
        }
      ],
      "name": "safeTransferFrom",
      "outputs": [],
      "stateMutability": "nonpayable",
      "type": "function"
    },
    {
      "inputs": [
        {
          "internalType": "address",
          "name": "from",
          "type": "address"
        },
        {
          "internalType": "address",
          "name": "to",
          "type": "address"
        },
        {
          "internalType": "uint256",
          "name": "tokenId",
          "type": "uint256"
        },
        {
          "internalType": "bytes",
          "name": "_data",
          "type": "bytes"
        }
      ],
      "name": "safeTransferFrom",
      "outputs": [],
      "stateMutability": "nonpayable",
      "type": "function"
    },
    {
      "inputs": [
        {
          "internalType": "address",
          "name": "operator",
          "type": "address"
        },
        {
          "internalType": "bool",
          "name": "approved",
          "type": "bool"
        }
      ],
      "name": "setApprovalForAll",
      "outputs": [],
      "stateMutability": "nonpayable",
      "type": "function"
    },
    {
      "inputs": [
        {
          "internalType": "bytes4",
          "name": "interfaceId",
          "type": "bytes4"
        }
      ],
      "name": "supportsInterface",
      "outputs": [
        {
          "internalType": "bool",
          "name": "",
          "type": "bool"
        }
      ],
      "stateMutability": "view",
      "type": "function",
      "constant": true
    },
    {
      "inputs": [],
      "name": "symbol",
      "outputs": [
        {
          "internalType": "string",
          "name": "",
          "type": "string"
        }
      ],
      "stateMutability": "view",
      "type": "function",
      "constant": true
    },
    {
      "inputs": [
        {
          "internalType": "uint256",
          "name": "tokenId",
          "type": "uint256"
        }
      ],
      "name": "tokenURI",
      "outputs": [
        {
          "internalType": "string",
          "name": "",
          "type": "string"
        }
      ],
      "stateMutability": "view",
      "type": "function",
      "constant": true
    },
    {
      "inputs": [
        {
          "internalType": "address",
          "name": "from",
          "type": "address"
        },
        {
          "internalType": "address",
          "name": "to",
          "type": "address"
        },
        {
          "internalType": "uint256",
          "name": "tokenId",
          "type": "uint256"
        }
      ],
      "name": "transferFrom",
      "outputs": [],
      "stateMutability": "nonpayable",
      "type": "function"
    },
    {
      "inputs": [
        {
          "internalType": "uint256",
          "name": "landId",
          "type": "uint256"
        },
        {
          "internalType": "uint256",
          "name": "price",
          "type": "uint256"
        }
      ],
      "name": "buy",
      "outputs": [
        {
          "internalType": "uint256",
          "name": "",
          "type": "uint256"
        }
      ],
      "stateMutability": "payable",
      "type": "function",
      "payable": true
    },
    {
      "inputs": [],
      "name": "getOwners",
      "outputs": [
        {
          "internalType": "address[80]",
          "name": "",
          "type": "address[80]"
        }
      ],
      "stateMutability": "view",
      "type": "function",
      "constant": true
    },
    {
      "inputs": [
        {
          "internalType": "uint256",
          "name": "landId",
          "type": "uint256"
        }
      ],
      "name": "getOwner",
      "outputs": [
        {
          "internalType": "address",
          "name": "landOwner",
          "type": "address"
        }
      ],
      "stateMutability": "view",
      "type": "function",
      "constant": true
    },
    {
      "inputs": [
        {
          "internalType": "address payable",
          "name": "from",
          "type": "address"
        },
        {
          "internalType": "address payable",
          "name": "to",
          "type": "address"
        },
        {
          "internalType": "uint256",
          "name": "landId",
          "type": "uint256"
        }
      ],
      "name": "transferLand",
      "outputs": [
        {
          "internalType": "uint256",
          "name": "",
          "type": "uint256"
        }
      ],
      "stateMutability": "nonpayable",
      "type": "function"
    },
    {
      "inputs": [
        {
          "internalType": "uint256",
          "name": "landId",
          "type": "uint256"
        },
        {
          "internalType": "uint256",
          "name": "newPrice",
          "type": "uint256"
        }
      ],
      "name": "setPrice",
      "outputs": [],
      "stateMutability": "nonpayable",
      "type": "function"
    }
  ],
  "bytecode": "0x60806040523480156200001157600080fd5b506040518060400160405280600881526020017f497a656e446f6d650000000000000000000000000000000000000000000000008152506040518060400160405280600381526020017f495a440000000000000000000000000000000000000000000000000000000000815250816000908051906020019062000096929190620000b8565b508060019080519060200190620000af929190620000b8565b505050620001cc565b828054620000c69062000197565b90600052602060002090601f016020900481019282620000ea576000855562000136565b82601f106200010557805160ff191683800117855562000136565b8280016001018555821562000136579182015b828111156200013557825182559160200191906001019062000118565b5b50905062000145919062000149565b5090565b5b80821115620001645760008160009055506001016200014a565b5090565b7f4e487b7100000000000000000000000000000000000000000000000000000000600052602260045260246000fd5b60006002820490506001821680620001b057607f821691505b602082108103620001c657620001c562000168565b5b50919050565b612f0f80620001dc6000396000f3fe6080604052600436106101145760003560e01c806395d89b41116100a0578063c41a360a11610064578063c41a360a146103d5578063c87b56dd14610412578063d6febde81461044f578063e985e9c51461047f578063f7d97577146104bc57610114565b806395d89b41146102f0578063a0e67e2b1461031b578063a22cb46514610346578063a762c3421461036f578063b88d4fde146103ac57610114565b8063095ea7b3116100e7578063095ea7b3146101fb57806323b872dd1461022457806342842e0e1461024d5780636352211e1461027657806370a08231146102b357610114565b806301ffc9a714610119578063025e7c271461015657806306fdde0314610193578063081812fc146101be575b600080fd5b34801561012557600080fd5b50610140600480360381019061013b9190611c06565b6104e5565b60405161014d9190611c4e565b60405180910390f35b34801561016257600080fd5b5061017d60048036038101906101789190611c9f565b6105c7565b60405161018a9190611d0d565b60405180910390f35b34801561019f57600080fd5b506101a86105fd565b6040516101b59190611dc1565b60405180910390f35b3480156101ca57600080fd5b506101e560048036038101906101e09190611c9f565b61068f565b6040516101f29190611d0d565b60405180910390f35b34801561020757600080fd5b50610222600480360381019061021d9190611e0f565b610714565b005b34801561023057600080fd5b5061024b60048036038101906102469190611e4f565b61082b565b005b34801561025957600080fd5b50610274600480360381019061026f9190611e4f565b61088b565b005b34801561028257600080fd5b5061029d60048036038101906102989190611c9f565b6108ab565b6040516102aa9190611d0d565b60405180910390f35b3480156102bf57600080fd5b506102da60048036038101906102d59190611ea2565b61095c565b6040516102e79190611ede565b60405180910390f35b3480156102fc57600080fd5b50610305610a13565b6040516103129190611dc1565b60405180910390f35b34801561032757600080fd5b50610330610aa5565b60405161033d9190611fa4565b60405180910390f35b34801561035257600080fd5b5061036d60048036038101906103689190611fec565b610b26565b005b34801561037b57600080fd5b506103966004803603810190610391919061206a565b610b3c565b6040516103a39190611ede565b60405180910390f35b3480156103b857600080fd5b506103d360048036038101906103ce91906121f2565b610be2565b005b3480156103e157600080fd5b506103fc60048036038101906103f79190611c9f565b610c44565b6040516104099190611d0d565b60405180910390f35b34801561041e57600080fd5b5061043960048036038101906104349190611c9f565b610c83565b6040516104469190611dc1565b60405180910390f35b61046960048036038101906104649190612275565b610d2a565b6040516104769190611ede565b60405180910390f35b34801561048b57600080fd5b506104a660048036038101906104a191906122b5565b610ea5565b6040516104b39190611c4e565b60405180910390f35b3480156104c857600080fd5b506104e360048036038101906104de9190612275565b610f39565b005b60007f80ac58cd000000000000000000000000000000000000000000000000000000007bffffffffffffffffffffffffffffffffffffffffffffffffffffffff1916827bffffffffffffffffffffffffffffffffffffffffffffffffffffffff191614806105b057507f5b5e139f000000000000000000000000000000000000000000000000000000007bffffffffffffffffffffffffffffffffffffffffffffffffffffffff1916827bffffffffffffffffffffffffffffffffffffffffffffffffffffffff1916145b806105c057506105bf82610fd0565b5b9050919050565b600681605081106105d757600080fd5b016000915054906101000a900473ffffffffffffffffffffffffffffffffffffffff1681565b60606000805461060c90612324565b80601f016020809104026020016040519081016040528092919081815260200182805461063890612324565b80156106855780601f1061065a57610100808354040283529160200191610685565b820191906000526020600020905b81548152906001019060200180831161066857829003601f168201915b5050505050905090565b600061069a8261103a565b6106d9576040517f08c379a00000000000000000000000000000000000000000000000000000000081526004016106d0906123c7565b60405180910390fd5b6004600083815260200190815260200160002060009054906101000a900473ffffffffffffffffffffffffffffffffffffffff169050919050565b600061071f826108ab565b90508073ffffffffffffffffffffffffffffffffffffffff168373ffffffffffffffffffffffffffffffffffffffff160361078f576040517f08c379a000000000000000000000000000000000000000000000000000000000815260040161078690612459565b60405180910390fd5b8073ffffffffffffffffffffffffffffffffffffffff166107ae6110a6565b73ffffffffffffffffffffffffffffffffffffffff1614806107dd57506107dc816107d76110a6565b610ea5565b5b61081c576040517f08c379a0000000000000000000000000000000000000000000000000000000008152600401610813906124eb565b60405180910390fd5b61082683836110ae565b505050565b61083c6108366110a6565b82611167565b61087b576040517f08c379a00000000000000000000000000000000000000000000000000000000081526004016108729061257d565b60405180910390fd5b610886838383611245565b505050565b6108a683838360405180602001604052806000815250610be2565b505050565b6000806002600084815260200190815260200160002060009054906101000a900473ffffffffffffffffffffffffffffffffffffffff169050600073ffffffffffffffffffffffffffffffffffffffff168173ffffffffffffffffffffffffffffffffffffffff1603610953576040517f08c379a000000000000000000000000000000000000000000000000000000000815260040161094a9061260f565b60405180910390fd5b80915050919050565b60008073ffffffffffffffffffffffffffffffffffffffff168273ffffffffffffffffffffffffffffffffffffffff16036109cc576040517f08c379a00000000000000000000000000000000000000000000000000000000081526004016109c3906126a1565b60405180910390fd5b600360008373ffffffffffffffffffffffffffffffffffffffff1673ffffffffffffffffffffffffffffffffffffffff168152602001908152602001600020549050919050565b606060018054610a2290612324565b80601f0160208091040260200160405190810160405280929190818152602001828054610a4e90612324565b8015610a9b5780601f10610a7057610100808354040283529160200191610a9b565b820191906000526020600020905b815481529060010190602001808311610a7e57829003601f168201915b5050505050905090565b610aad611b77565b6006605080602002604051908101604052809291908260508015610b1c576020028201915b8160009054906101000a900473ffffffffffffffffffffffffffffffffffffffff1673ffffffffffffffffffffffffffffffffffffffff1681526020019060010190808311610ad2575b5050505050905090565b610b38610b316110a6565b83836114ab565b5050565b6000610b49848484611245565b8260068360508110610b5e57610b5d6126c1565b5b0160006101000a81548173ffffffffffffffffffffffffffffffffffffffff021916908373ffffffffffffffffffffffffffffffffffffffff1602179055507f9e1d6189df6b1805ec42b2e7d6b24c959f44a916843a83c78d199e717631836b848484604051610bd09392919061274f565b60405180910390a18190509392505050565b610bf3610bed6110a6565b83611167565b610c32576040517f08c379a0000000000000000000000000000000000000000000000000000000008152600401610c299061257d565b60405180910390fd5b610c3e84848484611617565b50505050565b600060068260508110610c5a57610c596126c1565b5b0160009054906101000a900473ffffffffffffffffffffffffffffffffffffffff169050919050565b6060610c8e8261103a565b610ccd576040517f08c379a0000000000000000000000000000000000000000000000000000000008152600401610cc4906127f8565b60405180910390fd5b6000610cd7611673565b90506000815111610cf75760405180602001604052806000815250610d22565b80610d018461168a565b604051602001610d12929190612854565b6040516020818303038152906040525b915050919050565b6000808310158015610d3d5750604f8311155b610d4657600080fd5b600073ffffffffffffffffffffffffffffffffffffffff1660068460508110610d7257610d716126c1565b5b0160009054906101000a900473ffffffffffffffffffffffffffffffffffffffff1673ffffffffffffffffffffffffffffffffffffffff1614610db457600080fd5b8160568460508110610dc957610dc86126c1565b5b0181905550610dd833846117ea565b3360068460508110610ded57610dec6126c1565b5b0160006101000a81548173ffffffffffffffffffffffffffffffffffffffff021916908373ffffffffffffffffffffffffffffffffffffffff1602179055507fed9e0dc5479152698d99195d219992bd45798ef9712b0e94058cd0a9c614ce99338460068660508110610e6357610e626126c1565b5b0160009054906101000a900473ffffffffffffffffffffffffffffffffffffffff16604051610e9493929190612878565b60405180910390a182905092915050565b6000600560008473ffffffffffffffffffffffffffffffffffffffff1673ffffffffffffffffffffffffffffffffffffffff16815260200190815260200160002060008373ffffffffffffffffffffffffffffffffffffffff1673ffffffffffffffffffffffffffffffffffffffff16815260200190815260200160002060009054906101000a900460ff16905092915050565b3373ffffffffffffffffffffffffffffffffffffffff16610f59836108ab565b73ffffffffffffffffffffffffffffffffffffffff1614610f7957600080fd5b8060568360508110610f8e57610f8d6126c1565b5b01819055507f8aa4fa52648a6d15edce8a179c792c86f3719d0cc3c572cf90f91948f0f2cb688282604051610fc49291906128af565b60405180910390a15050565b60007f01ffc9a7000000000000000000000000000000000000000000000000000000007bffffffffffffffffffffffffffffffffffffffffffffffffffffffff1916827bffffffffffffffffffffffffffffffffffffffffffffffffffffffff1916149050919050565b60008073ffffffffffffffffffffffffffffffffffffffff166002600084815260200190815260200160002060009054906101000a900473ffffffffffffffffffffffffffffffffffffffff1673ffffffffffffffffffffffffffffffffffffffff1614159050919050565b600033905090565b816004600083815260200190815260200160002060006101000a81548173ffffffffffffffffffffffffffffffffffffffff021916908373ffffffffffffffffffffffffffffffffffffffff160217905550808273ffffffffffffffffffffffffffffffffffffffff16611121836108ab565b73ffffffffffffffffffffffffffffffffffffffff167f8c5be1e5ebec7d5bd14f71427d1e84f3dd0314c0f7b2291e5b200ac8c7c3b92560405160405180910390a45050565b60006111728261103a565b6111b1576040517f08c379a00000000000000000000000000000000000000000000000000000000081526004016111a89061294a565b60405180910390fd5b60006111bc836108ab565b90508073ffffffffffffffffffffffffffffffffffffffff168473ffffffffffffffffffffffffffffffffffffffff1614806111fe57506111fd8185610ea5565b5b8061123c57508373ffffffffffffffffffffffffffffffffffffffff166112248461068f565b73ffffffffffffffffffffffffffffffffffffffff16145b91505092915050565b8273ffffffffffffffffffffffffffffffffffffffff16611265826108ab565b73ffffffffffffffffffffffffffffffffffffffff16146112bb576040517f08c379a00000000000000000000000000000000000000000000000000000000081526004016112b2906129dc565b60405180910390fd5b600073ffffffffffffffffffffffffffffffffffffffff168273ffffffffffffffffffffffffffffffffffffffff160361132a576040517f08c379a000000000000000000000000000000000000000000000000000000000815260040161132190612a6e565b60405180910390fd5b6113358383836119c3565b6113406000826110ae565b6001600360008573ffffffffffffffffffffffffffffffffffffffff1673ffffffffffffffffffffffffffffffffffffffff16815260200190815260200160002060008282546113909190612abd565b925050819055506001600360008473ffffffffffffffffffffffffffffffffffffffff1673ffffffffffffffffffffffffffffffffffffffff16815260200190815260200160002060008282546113e79190612af1565b92505081905550816002600083815260200190815260200160002060006101000a81548173ffffffffffffffffffffffffffffffffffffffff021916908373ffffffffffffffffffffffffffffffffffffffff160217905550808273ffffffffffffffffffffffffffffffffffffffff168473ffffffffffffffffffffffffffffffffffffffff167fddf252ad1be2c89b69c2b068fc378daa952ba7f163c4a11628f55a4df523b3ef60405160405180910390a46114a68383836119c8565b505050565b8173ffffffffffffffffffffffffffffffffffffffff168373ffffffffffffffffffffffffffffffffffffffff1603611519576040517f08c379a000000000000000000000000000000000000000000000000000000000815260040161151090612b93565b60405180910390fd5b80600560008573ffffffffffffffffffffffffffffffffffffffff1673ffffffffffffffffffffffffffffffffffffffff16815260200190815260200160002060008473ffffffffffffffffffffffffffffffffffffffff1673ffffffffffffffffffffffffffffffffffffffff16815260200190815260200160002060006101000a81548160ff0219169083151502179055508173ffffffffffffffffffffffffffffffffffffffff168373ffffffffffffffffffffffffffffffffffffffff167f17307eab39ab6107e8899845ad3d59bd9653f200f220920489ca2b5937696c318360405161160a9190611c4e565b60405180910390a3505050565b611622848484611245565b61162e848484846119cd565b61166d576040517f08c379a000000000000000000000000000000000000000000000000000000000815260040161166490612c25565b60405180910390fd5b50505050565b606060405180602001604052806000815250905090565b6060600082036116d1576040518060400160405280600181526020017f300000000000000000000000000000000000000000000000000000000000000081525090506117e5565b600082905060005b600082146117035780806116ec90612c45565b915050600a826116fc9190612cbc565b91506116d9565b60008167ffffffffffffffff81111561171f5761171e6120c7565b5b6040519080825280601f01601f1916602001820160405280156117515781602001600182028036833780820191505090505b5090505b600085146117de5760018261176a9190612abd565b9150600a856117799190612ced565b60306117859190612af1565b60f81b81838151811061179b5761179a6126c1565b5b60200101907effffffffffffffffffffffffffffffffffffffffffffffffffffffffffffff1916908160001a905350600a856117d79190612cbc565b9450611755565b8093505050505b919050565b600073ffffffffffffffffffffffffffffffffffffffff168273ffffffffffffffffffffffffffffffffffffffff1603611859576040517f08c379a000000000000000000000000000000000000000000000000000000000815260040161185090612d6a565b60405180910390fd5b6118628161103a565b156118a2576040517f08c379a000000000000000000000000000000000000000000000000000000000815260040161189990612dd6565b60405180910390fd5b6118ae600083836119c3565b6001600360008473ffffffffffffffffffffffffffffffffffffffff1673ffffffffffffffffffffffffffffffffffffffff16815260200190815260200160002060008282546118fe9190612af1565b92505081905550816002600083815260200190815260200160002060006101000a81548173ffffffffffffffffffffffffffffffffffffffff021916908373ffffffffffffffffffffffffffffffffffffffff160217905550808273ffffffffffffffffffffffffffffffffffffffff16600073ffffffffffffffffffffffffffffffffffffffff167fddf252ad1be2c89b69c2b068fc378daa952ba7f163c4a11628f55a4df523b3ef60405160405180910390a46119bf600083836119c8565b5050565b505050565b505050565b60006119ee8473ffffffffffffffffffffffffffffffffffffffff16611b54565b15611b47578373ffffffffffffffffffffffffffffffffffffffff1663150b7a02611a176110a6565b8786866040518563ffffffff1660e01b8152600401611a399493929190612e4b565b6020604051808303816000875af1925050508015611a7557506040513d601f19601f82011682018060405250810190611a729190612eac565b60015b611af7573d8060008114611aa5576040519150601f19603f3d011682016040523d82523d6000602084013e611aaa565b606091505b506000815103611aef576040517f08c379a0000000000000000000000000000000000000000000000000000000008152600401611ae690612c25565b60405180910390fd5b805181602001fd5b63150b7a0260e01b7bffffffffffffffffffffffffffffffffffffffffffffffffffffffff1916817bffffffffffffffffffffffffffffffffffffffffffffffffffffffff191614915050611b4c565b600190505b949350505050565b6000808273ffffffffffffffffffffffffffffffffffffffff163b119050919050565b60405180610a000160405280605090602082028036833780820191505090505090565b6000604051905090565b600080fd5b600080fd5b60007fffffffff0000000000000000000000000000000000000000000000000000000082169050919050565b611be381611bae565b8114611bee57600080fd5b50565b600081359050611c0081611bda565b92915050565b600060208284031215611c1c57611c1b611ba4565b5b6000611c2a84828501611bf1565b91505092915050565b60008115159050919050565b611c4881611c33565b82525050565b6000602082019050611c636000830184611c3f565b92915050565b6000819050919050565b611c7c81611c69565b8114611c8757600080fd5b50565b600081359050611c9981611c73565b92915050565b600060208284031215611cb557611cb4611ba4565b5b6000611cc384828501611c8a565b91505092915050565b600073ffffffffffffffffffffffffffffffffffffffff82169050919050565b6000611cf782611ccc565b9050919050565b611d0781611cec565b82525050565b6000602082019050611d226000830184611cfe565b92915050565b600081519050919050565b600082825260208201905092915050565b60005b83811015611d62578082015181840152602081019050611d47565b83811115611d71576000848401525b50505050565b6000601f19601f8301169050919050565b6000611d9382611d28565b611d9d8185611d33565b9350611dad818560208601611d44565b611db681611d77565b840191505092915050565b60006020820190508181036000830152611ddb8184611d88565b905092915050565b611dec81611cec565b8114611df757600080fd5b50565b600081359050611e0981611de3565b92915050565b60008060408385031215611e2657611e25611ba4565b5b6000611e3485828601611dfa565b9250506020611e4585828601611c8a565b9150509250929050565b600080600060608486031215611e6857611e67611ba4565b5b6000611e7686828701611dfa565b9350506020611e8786828701611dfa565b9250506040611e9886828701611c8a565b9150509250925092565b600060208284031215611eb857611eb7611ba4565b5b6000611ec684828501611dfa565b91505092915050565b611ed881611c69565b82525050565b6000602082019050611ef36000830184611ecf565b92915050565b600060509050919050565b600081905092915050565b6000819050919050565b611f2281611cec565b82525050565b6000611f348383611f19565b60208301905092915050565b6000602082019050919050565b611f5681611ef9565b611f608184611f04565b9250611f6b82611f0f565b8060005b83811015611f9c578151611f838782611f28565b9650611f8e83611f40565b925050600181019050611f6f565b505050505050565b6000610a0082019050611fba6000830184611f4d565b92915050565b611fc981611c33565b8114611fd457600080fd5b50565b600081359050611fe681611fc0565b92915050565b6000806040838503121561200357612002611ba4565b5b600061201185828601611dfa565b925050602061202285828601611fd7565b9150509250929050565b600061203782611ccc565b9050919050565b6120478161202c565b811461205257600080fd5b50565b6000813590506120648161203e565b92915050565b60008060006060848603121561208357612082611ba4565b5b600061209186828701612055565b93505060206120a286828701612055565b92505060406120b386828701611c8a565b9150509250925092565b600080fd5b600080fd5b7f4e487b7100000000000000000000000000000000000000000000000000000000600052604160045260246000fd5b6120ff82611d77565b810181811067ffffffffffffffff8211171561211e5761211d6120c7565b5b80604052505050565b6000612131611b9a565b905061213d82826120f6565b919050565b600067ffffffffffffffff82111561215d5761215c6120c7565b5b61216682611d77565b9050602081019050919050565b82818337600083830152505050565b600061219561219084612142565b612127565b9050828152602081018484840111156121b1576121b06120c2565b5b6121bc848285612173565b509392505050565b600082601f8301126121d9576121d86120bd565b5b81356121e9848260208601612182565b91505092915050565b6000806000806080858703121561220c5761220b611ba4565b5b600061221a87828801611dfa565b945050602061222b87828801611dfa565b935050604061223c87828801611c8a565b925050606085013567ffffffffffffffff81111561225d5761225c611ba9565b5b612269878288016121c4565b91505092959194509250565b6000806040838503121561228c5761228b611ba4565b5b600061229a85828601611c8a565b92505060206122ab85828601611c8a565b9150509250929050565b600080604083850312156122cc576122cb611ba4565b5b60006122da85828601611dfa565b92505060206122eb85828601611dfa565b9150509250929050565b7f4e487b7100000000000000000000000000000000000000000000000000000000600052602260045260246000fd5b6000600282049050600182168061233c57607f821691505b60208210810361234f5761234e6122f5565b5b50919050565b7f4552433732313a20617070726f76656420717565727920666f72206e6f6e657860008201527f697374656e7420746f6b656e0000000000000000000000000000000000000000602082015250565b60006123b1602c83611d33565b91506123bc82612355565b604082019050919050565b600060208201905081810360008301526123e0816123a4565b9050919050565b7f4552433732313a20617070726f76616c20746f2063757272656e74206f776e6560008201527f7200000000000000000000000000000000000000000000000000000000000000602082015250565b6000612443602183611d33565b915061244e826123e7565b604082019050919050565b6000602082019050818103600083015261247281612436565b9050919050565b7f4552433732313a20617070726f76652063616c6c6572206973206e6f74206f7760008201527f6e6572206e6f7220617070726f76656420666f7220616c6c0000000000000000602082015250565b60006124d5603883611d33565b91506124e082612479565b604082019050919050565b60006020820190508181036000830152612504816124c8565b9050919050565b7f4552433732313a207472616e736665722063616c6c6572206973206e6f74206f60008201527f776e6572206e6f7220617070726f766564000000000000000000000000000000602082015250565b6000612567603183611d33565b91506125728261250b565b604082019050919050565b600060208201905081810360008301526125968161255a565b9050919050565b7f4552433732313a206f776e657220717565727920666f72206e6f6e657869737460008201527f656e7420746f6b656e0000000000000000000000000000000000000000000000602082015250565b60006125f9602983611d33565b91506126048261259d565b604082019050919050565b60006020820190508181036000830152612628816125ec565b9050919050565b7f4552433732313a2062616c616e636520717565727920666f7220746865207a6560008201527f726f206164647265737300000000000000000000000000000000000000000000602082015250565b600061268b602a83611d33565b91506126968261262f565b604082019050919050565b600060208201905081810360008301526126ba8161267e565b9050919050565b7f4e487b7100000000000000000000000000000000000000000000000000000000600052603260045260246000fd5b6000819050919050565b600061271561271061270b84611ccc565b6126f0565b611ccc565b9050919050565b6000612727826126fa565b9050919050565b60006127398261271c565b9050919050565b6127498161272e565b82525050565b60006060820190506127646000830186612740565b6127716020830185612740565b61277e6040830184611ecf565b949350505050565b7f4552433732314d657461646174613a2055524920717565727920666f72206e6f60008201527f6e6578697374656e7420746f6b656e0000000000000000000000000000000000602082015250565b60006127e2602f83611d33565b91506127ed82612786565b604082019050919050565b60006020820190508181036000830152612811816127d5565b9050919050565b600081905092915050565b600061282e82611d28565b6128388185612818565b9350612848818560208601611d44565b80840191505092915050565b60006128608285612823565b915061286c8284612823565b91508190509392505050565b600060608201905061288d6000830186611cfe565b61289a6020830185611ecf565b6128a76040830184611cfe565b949350505050565b60006040820190506128c46000830185611ecf565b6128d16020830184611ecf565b9392505050565b7f4552433732313a206f70657261746f7220717565727920666f72206e6f6e657860008201527f697374656e7420746f6b656e0000000000000000000000000000000000000000602082015250565b6000612934602c83611d33565b915061293f826128d8565b604082019050919050565b6000602082019050818103600083015261296381612927565b9050919050565b7f4552433732313a207472616e736665722066726f6d20696e636f72726563742060008201527f6f776e6572000000000000000000000000000000000000000000000000000000602082015250565b60006129c6602583611d33565b91506129d18261296a565b604082019050919050565b600060208201905081810360008301526129f5816129b9565b9050919050565b7f4552433732313a207472616e7366657220746f20746865207a65726f2061646460008201527f7265737300000000000000000000000000000000000000000000000000000000602082015250565b6000612a58602483611d33565b9150612a63826129fc565b604082019050919050565b60006020820190508181036000830152612a8781612a4b565b9050919050565b7f4e487b7100000000000000000000000000000000000000000000000000000000600052601160045260246000fd5b6000612ac882611c69565b9150612ad383611c69565b925082821015612ae657612ae5612a8e565b5b828203905092915050565b6000612afc82611c69565b9150612b0783611c69565b9250827fffffffffffffffffffffffffffffffffffffffffffffffffffffffffffffffff03821115612b3c57612b3b612a8e565b5b828201905092915050565b7f4552433732313a20617070726f766520746f2063616c6c657200000000000000600082015250565b6000612b7d601983611d33565b9150612b8882612b47565b602082019050919050565b60006020820190508181036000830152612bac81612b70565b9050919050565b7f4552433732313a207472616e7366657220746f206e6f6e20455243373231526560008201527f63656976657220696d706c656d656e7465720000000000000000000000000000602082015250565b6000612c0f603283611d33565b9150612c1a82612bb3565b604082019050919050565b60006020820190508181036000830152612c3e81612c02565b9050919050565b6000612c5082611c69565b91507fffffffffffffffffffffffffffffffffffffffffffffffffffffffffffffffff8203612c8257612c81612a8e565b5b600182019050919050565b7f4e487b7100000000000000000000000000000000000000000000000000000000600052601260045260246000fd5b6000612cc782611c69565b9150612cd283611c69565b925082612ce257612ce1612c8d565b5b828204905092915050565b6000612cf882611c69565b9150612d0383611c69565b925082612d1357612d12612c8d565b5b828206905092915050565b7f4552433732313a206d696e7420746f20746865207a65726f2061646472657373600082015250565b6000612d54602083611d33565b9150612d5f82612d1e565b602082019050919050565b60006020820190508181036000830152612d8381612d47565b9050919050565b7f4552433732313a20746f6b656e20616c7265616479206d696e74656400000000600082015250565b6000612dc0601c83611d33565b9150612dcb82612d8a565b602082019050919050565b60006020820190508181036000830152612def81612db3565b9050919050565b600081519050919050565b600082825260208201905092915050565b6000612e1d82612df6565b612e278185612e01565b9350612e37818560208601611d44565b612e4081611d77565b840191505092915050565b6000608082019050612e606000830187611cfe565b612e6d6020830186611cfe565b612e7a6040830185611ecf565b8181036060830152612e8c8184612e12565b905095945050505050565b600081519050612ea681611bda565b92915050565b600060208284031215612ec257612ec1611ba4565b5b6000612ed084828501612e97565b9150509291505056fea2646970667358221220fadd76ebe65227f3a5ecfa11e4dbd7f9cad52ef594d5e4fe5e7892fae8ba55be64736f6c634300080d0033",
  "immutableReferences": {},
  "source": "// contracts/Izendome.sol\r\n// SPDX-License-Identifier: MIT\r\npragma solidity ^0.8.13;\r\n\r\nimport \"@openzeppelin/contracts/token/ERC721/ERC721.sol\";\r\nimport \"./IzenDome.sol\";\r\n\r\ncontract Buyland is IzenDome {\r\n    address [80] public owners;\r\n    uint [80] _price;\r\n    \r\n    event LandBought(address indexedFrom, uint256 landId, address owner);\r\n    event LandTransfer(address from, address to, uint landId);\r\n    event PriceChanged(uint landId, uint256 newPrice);\r\n\r\n    function buy(uint256 landId, uint256 price) public payable returns (uint256) {\r\n        require(landId >= 0 && landId <= 79);\r\n        require(owners[landId] == 0x0000000000000000000000000000000000000000);\r\n        _price[landId] = price;\r\n        _mint(msg.sender, landId);\r\n        owners[landId] = msg.sender;\r\n        emit LandBought(msg.sender, landId, owners[landId]);\r\n        return landId;\r\n    }\r\n    // Retrieving the owners\r\n    function getOwners() public view returns (address[80] memory) {\r\n        return owners;\r\n    }\r\n    // Retrieving specific owner\r\n    function getOwner(uint256 landId) public view returns (address landOwner) {\r\n        return owners[landId];\r\n    }\r\n    function transferLand(address payable from, address payable to, uint256 landId ) public virtual  returns (uint256) {\r\n        //solhint-disable-next-line max-line-length\r\n        _transfer(from, to, landId);\r\n        owners[landId] = to;\r\n        emit LandTransfer(from ,to ,landId);\r\n        return landId;\r\n    }\r\n    function setPrice(uint256 landId, uint256 newPrice) public virtual {\r\n        require(ownerOf(landId) == msg.sender);\r\n        _price[landId] = newPrice;\r\n        emit PriceChanged(landId, newPrice);\r\n    }\r\n\r\n}",
  "sourcePath": "D:\\Blockchain\\dapp-meta-decentraland2\\contracts\\BuyLand.sol",
  "compiler": {
    "name": "solc",
    "version": "0.8.13+commit.abaa5c0e.Emscripten.clang"
  },
  "schemaVersion": "3.4.7",
  "updatedAt": "2022-06-14T08:56:18.147Z",
  "networkType": "ethereum",
  "devdoc": {
    "kind": "dev",
    "methods": {
      "approve(address,uint256)": {
        "details": "See {IERC721-approve}."
      },
      "balanceOf(address)": {
        "details": "See {IERC721-balanceOf}."
      },
      "getApproved(uint256)": {
        "details": "See {IERC721-getApproved}."
      },
      "isApprovedForAll(address,address)": {
        "details": "See {IERC721-isApprovedForAll}."
      },
      "name()": {
        "details": "See {IERC721Metadata-name}."
      },
      "ownerOf(uint256)": {
        "details": "See {IERC721-ownerOf}."
      },
      "safeTransferFrom(address,address,uint256)": {
        "details": "See {IERC721-safeTransferFrom}."
      },
      "safeTransferFrom(address,address,uint256,bytes)": {
        "details": "See {IERC721-safeTransferFrom}."
      },
      "setApprovalForAll(address,bool)": {
        "details": "See {IERC721-setApprovalForAll}."
      },
      "supportsInterface(bytes4)": {
        "details": "See {IERC165-supportsInterface}."
      },
      "symbol()": {
        "details": "See {IERC721Metadata-symbol}."
      },
      "tokenURI(uint256)": {
        "details": "See {IERC721Metadata-tokenURI}."
      },
      "transferFrom(address,address,uint256)": {
        "details": "See {IERC721-transferFrom}."
      }
    },
    "version": 1
  },
  "userdoc": {
    "kind": "user",
    "methods": {},
    "version": 1
  }
}